{
  "contractName": "User",
  "abi": [
    {
      "inputs": [],
      "payable": false,
      "stateMutability": "nonpayable",
      "type": "constructor"
    },
    {
      "anonymous": false,
      "inputs": [
        {
          "indexed": false,
          "name": "_account",
          "type": "address"
        },
        {
          "indexed": false,
          "name": "Val",
          "type": "bool"
        }
      ],
      "name": "HasBeenSet",
      "type": "event"
    },
    {
      "anonymous": false,
      "inputs": [
        {
          "indexed": false,
          "name": "_account",
          "type": "address"
        },
        {
          "indexed": false,
          "name": "Name",
          "type": "string"
        },
        {
          "indexed": false,
          "name": "val",
          "type": "bool"
        }
      ],
      "name": "UserAdded",
      "type": "event"
    },
    {
      "constant": false,
      "inputs": [
        {
          "name": "_account",
          "type": "address"
        }
      ],
      "name": "SetUser",
      "outputs": [],
      "payable": false,
      "stateMutability": "nonpayable",
      "type": "function"
    },
    {
      "constant": false,
      "inputs": [
        {
          "name": "_account",
          "type": "address"
        }
      ],
      "name": "AccountAdded",
      "outputs": [
        {
          "name": "",
          "type": "bool"
        }
      ],
      "payable": false,
      "stateMutability": "nonpayable",
      "type": "function"
    },
    {
      "constant": false,
      "inputs": [
        {
          "name": "_account",
          "type": "address"
        },
        {
          "name": "_name",
          "type": "string"
        }
      ],
      "name": "CreateUser",
      "outputs": [
        {
          "name": "",
          "type": "bool"
        }
      ],
      "payable": false,
      "stateMutability": "nonpayable",
      "type": "function"
    }
  ],
  "bytecode": "0x6060604052341561000f57600080fd5b33600260006101000a81548173ffffffffffffffffffffffffffffffffffffffff021916908373ffffffffffffffffffffffffffffffffffffffff1602179055506105638061005f6000396000f300606060405260043610610057576000357c0100000000000000000000000000000000000000000000000000000000900463ffffffff16806369ad4c161461005c5780637af318d5146100955780638f42195a14610129575b600080fd5b341561006757600080fd5b610093600480803573ffffffffffffffffffffffffffffffffffffffff1690602001909190505061017a565b005b34156100a057600080fd5b61010f600480803573ffffffffffffffffffffffffffffffffffffffff1690602001909190803590602001908201803590602001908080601f01602080910402602001604051908101604052809392919081815260200183838082843782019150505050505091905050610230565b604051808215151515815260200191505060405180910390f35b341561013457600080fd5b610160600480803573ffffffffffffffffffffffffffffffffffffffff16906020019091905050610384565b604051808215151515815260200191505060405180910390f35b600260009054906101000a900473ffffffffffffffffffffffffffffffffffffffff1673ffffffffffffffffffffffffffffffffffffffff163373ffffffffffffffffffffffffffffffffffffffff161415156101d657600080fd5b60016000808373ffffffffffffffffffffffffffffffffffffffff1673ffffffffffffffffffffffffffffffffffffffff16815260200190815260200160002060006101000a81548160ff02191690831515021790555050565b600061023b83610384565b1561037d5781600160008573ffffffffffffffffffffffffffffffffffffffff1673ffffffffffffffffffffffffffffffffffffffff1681526020019081526020016000206000019080519060200190610296929190610492565b507f8da4d08b660148e3aeec5166e2b51fd9cac5dfac04471806402bea745db272f783836001604051808473ffffffffffffffffffffffffffffffffffffffff1673ffffffffffffffffffffffffffffffffffffffff1681526020018060200183151515158152602001828103825284818151815260200191508051906020019080838360005b8381101561033857808201518184015260208101905061031d565b50505050905090810190601f1680156103655780820380516001836020036101000a031916815260200191505b5094505050505060405180910390a16001905061037e565b5b92915050565b60007e5364193e165887b1095b30fe2c51f9e6652a2cab663cf3ce7c55cd048f1b1c826000808573ffffffffffffffffffffffffffffffffffffffff1673ffffffffffffffffffffffffffffffffffffffff16815260200190815260200160002060009054906101000a900460ff16604051808373ffffffffffffffffffffffffffffffffffffffff1673ffffffffffffffffffffffffffffffffffffffff168152602001821515151581526020019250505060405180910390a16000808373ffffffffffffffffffffffffffffffffffffffff1673ffffffffffffffffffffffffffffffffffffffff16815260200190815260200160002060009054906101000a900460ff169050919050565b828054600181600116156101000203166002900490600052602060002090601f016020900481019282601f106104d357805160ff1916838001178555610501565b82800160010185558215610501579182015b828111156105005782518255916020019190600101906104e5565b5b50905061050e9190610512565b5090565b61053491905b80821115610530576000816000905550600101610518565b5090565b905600a165627a7a723058208e91952e6496b9d016ba06d962059e40d41541fc7be7e4acb815da5d77aa1f710029",
  "source": "pragma solidity ^0.4.2;\r\n\r\ncontract User{\r\n    mapping (address => bool) private AddedAccounts;\r\n    mapping (address => UserStruct) private _Accounts;\r\n    address private owner;\r\n    event HasBeenSet(address _account, bool Val);\r\n    event UserAdded(address _account,string Name, bool val);\r\n    \r\n    modifier OnlyOwner ()\r\n    {\r\n        require(msg.sender==owner);\r\n        _;\r\n    }\r\n    \r\n    function User ()\r\n    {\r\n        owner = msg.sender;\r\n    }\r\n    struct UserStruct {\r\n        string name;\r\n    }\r\n    function SetUser(address _account) OnlyOwner\r\n    {\r\n        AddedAccounts[_account] = true;\r\n    }\r\n    function AccountAdded(address _account) returns(bool)\r\n    {\r\n        emit HasBeenSet(_account,AddedAccounts[_account]);\r\n        return AddedAccounts[_account];\r\n    }\r\n    \r\n    function CreateUser(address _account, string _name) returns(bool)\r\n    {\r\n        if(AccountAdded(_account))\r\n        {\r\n            _Accounts[_account].name = _name;\r\n            emit UserAdded(_account,_name, true);\r\n            return true;\r\n        }\r\n    }\r\n    \r\n}",
  "sourcePath": "C:\\truffle\\PeerWallet\\contracts\\User.sol",
  "compiler": {
    "name": "solc",
    "version": "0.4.21+commit.dfe3193c.Emscripten.clang"
  },
  "schemaVersion": "2.0.0",
  "updatedAt": "2018-04-14T12:57:12.576Z"
}